{
  "contractName": "RevocationRegistry",
  "abi": [
    {
      "inputs": [],
      "stateMutability": "nonpayable",
      "type": "constructor"
    },
    {
      "anonymous": false,
      "inputs": [
        {
          "indexed": true,
          "internalType": "address",
          "name": "caAddress",
          "type": "address"
        }
      ],
      "name": "CAAuthorized",
      "type": "event"
    },
    {
      "anonymous": false,
      "inputs": [
        {
          "indexed": true,
          "internalType": "address",
          "name": "caAddress",
          "type": "address"
        }
      ],
      "name": "CADeauthorized",
      "type": "event"
    },
    {
      "anonymous": false,
      "inputs": [
        {
          "indexed": true,
          "internalType": "bytes32",
          "name": "serialNumber",
          "type": "bytes32"
        },
        {
          "indexed": false,
          "internalType": "string",
          "name": "issuerId",
          "type": "string"
        },
        {
          "indexed": false,
          "internalType": "uint256",
          "name": "timestamp",
          "type": "uint256"
        }
      ],
      "name": "RevocationEvent",
      "type": "event"
    },
    {
      "inputs": [
        {
          "internalType": "address",
          "name": "caAddress",
          "type": "address"
        }
      ],
      "name": "authorizeCA",
      "outputs": [],
      "stateMutability": "nonpayable",
      "type": "function"
    },
    {
      "inputs": [
        {
          "internalType": "address",
          "name": "caAddress",
          "type": "address"
        }
      ],
      "name": "deauthorizeCA",
      "outputs": [],
      "stateMutability": "nonpayable",
      "type": "function"
    },
    {
      "inputs": [
        {
          "internalType": "address",
          "name": "caAddress",
          "type": "address"
        }
      ],
      "name": "isAuthorizedCA",
      "outputs": [
        {
          "internalType": "bool",
          "name": "",
          "type": "bool"
        }
      ],
      "stateMutability": "view",
      "type": "function"
    },
    {
      "inputs": [
        {
          "internalType": "bytes32",
          "name": "serialNumber",
          "type": "bytes32"
        },
        {
          "internalType": "string",
          "name": "issuerId",
          "type": "string"
        },
        {
          "internalType": "uint256",
          "name": "timestamp",
          "type": "uint256"
        }
      ],
      "name": "revokeCertificate",
      "outputs": [],
      "stateMutability": "nonpayable",
      "type": "function"
    },
    {
      "inputs": [
        {
          "internalType": "bytes32",
          "name": "serialNumber",
          "type": "bytes32"
        }
      ],
      "name": "isRevoked",
      "outputs": [
        {
          "internalType": "bool",
          "name": "",
          "type": "bool"
        }
      ],
      "stateMutability": "view",
      "type": "function"
    },
    {
      "inputs": [
        {
          "internalType": "bytes32",
          "name": "serialNumber",
          "type": "bytes32"
        }
      ],
      "name": "getRevocationDetails",
      "outputs": [
        {
          "internalType": "string",
          "name": "issuerId",
          "type": "string"
        },
        {
          "internalType": "uint256",
          "name": "timestamp",
          "type": "uint256"
        },
        {
          "internalType": "bool",
          "name": "revoked",
          "type": "bool"
        }
      ],
      "stateMutability": "view",
      "type": "function"
    },
    {
      "inputs": [
        {
          "internalType": "address",
          "name": "newOwner",
          "type": "address"
        }
      ],
      "name": "transferOwnership",
      "outputs": [],
      "stateMutability": "nonpayable",
      "type": "function"
    }
  ],
  "bytecode": "0x608060405234801561000f575f80fd5b503360025f6101000a81548173ffffffffffffffffffffffffffffffffffffffff021916908373ffffffffffffffffffffffffffffffffffffffff1602179055506110fa8061005d5f395ff3fe608060405234801561000f575f80fd5b506004361061007b575f3560e01c80638e04289f116100595780638e04289f146100fb578063a2a2694114610117578063eb499f0a14610133578063f2fde38b146101655761007b565b80634294857f1461007f5780634b915827146100af578063636ee7dc146100df575b5f80fd5b61009960048036038101906100949190610895565b610181565b6040516100a691906108da565b60405180910390f35b6100c960048036038101906100c4919061094d565b6101a9565b6040516100d691906108da565b60405180910390f35b6100f960048036038101906100f49190610a0c565b6101fb565b005b6101156004803603810190610110919061094d565b6103d7565b005b610131600480360381019061012c919061094d565b610500565b005b61014d60048036038101906101489190610895565b610629565b60405161015c93929190610b16565b60405180910390f35b61017f600480360381019061017a919061094d565b61071a565b005b5f805f8381526020019081526020015f206002015f9054906101000a900460ff169050919050565b5f60015f8373ffffffffffffffffffffffffffffffffffffffff1673ffffffffffffffffffffffffffffffffffffffff1681526020019081526020015f205f9054906101000a900460ff169050919050565b60015f3373ffffffffffffffffffffffffffffffffffffffff1673ffffffffffffffffffffffffffffffffffffffff1681526020019081526020015f205f9054906101000a900460ff16610284576040517f08c379a000000000000000000000000000000000000000000000000000000000815260040161027b90610bc2565b60405180910390fd5b5f808581526020019081526020015f206002015f9054906101000a900460ff16156102e4576040517f08c379a00000000000000000000000000000000000000000000000000000000081526004016102db90610c2a565b60405180910390fd5b604051806060016040528084848080601f0160208091040260200160405190810160405280939291908181526020018383808284375f81840152601f19601f820116905080830192505050505050508152602001828152602001600115158152505f808681526020019081526020015f205f820151815f0190816103689190610e6f565b50602082015181600101556040820151816002015f6101000a81548160ff021916908315150217905550905050837f076c584528fc9524a3c26fcd9d9a189dc3f698de54f2f1a32e3acfdf4c0949c68484846040516103c993929190610f78565b60405180910390a250505050565b60025f9054906101000a900473ffffffffffffffffffffffffffffffffffffffff1673ffffffffffffffffffffffffffffffffffffffff163373ffffffffffffffffffffffffffffffffffffffff1614610466576040517f08c379a000000000000000000000000000000000000000000000000000000000815260040161045d90611018565b60405180910390fd5b5f60015f8373ffffffffffffffffffffffffffffffffffffffff1673ffffffffffffffffffffffffffffffffffffffff1681526020019081526020015f205f6101000a81548160ff0219169083151502179055508073ffffffffffffffffffffffffffffffffffffffff167f07ca0ef00e313af1fbc77dc29bfa72440ee7c04c543fafdee944902f49384a7d60405160405180910390a250565b60025f9054906101000a900473ffffffffffffffffffffffffffffffffffffffff1673ffffffffffffffffffffffffffffffffffffffff163373ffffffffffffffffffffffffffffffffffffffff161461058f576040517f08c379a000000000000000000000000000000000000000000000000000000000815260040161058690611018565b60405180910390fd5b6001805f8373ffffffffffffffffffffffffffffffffffffffff1673ffffffffffffffffffffffffffffffffffffffff1681526020019081526020015f205f6101000a81548160ff0219169083151502179055508073ffffffffffffffffffffffffffffffffffffffff167f15b4e4faae2e800ca75e175c03c217b0ab659d5a64286ca5bad0921c1f2d53e160405160405180910390a250565b60605f805f805f8681526020019081526020015f206040518060600160405290815f8201805461065890610ca2565b80601f016020809104026020016040519081016040528092919081815260200182805461068490610ca2565b80156106cf5780601f106106a6576101008083540402835291602001916106cf565b820191905f5260205f20905b8154815290600101906020018083116106b257829003601f168201915b5050505050815260200160018201548152602001600282015f9054906101000a900460ff1615151515815250509050805f015181602001518260400151935093509350509193909250565b60025f9054906101000a900473ffffffffffffffffffffffffffffffffffffffff1673ffffffffffffffffffffffffffffffffffffffff163373ffffffffffffffffffffffffffffffffffffffff16146107a9576040517f08c379a00000000000000000000000000000000000000000000000000000000081526004016107a090611018565b60405180910390fd5b5f73ffffffffffffffffffffffffffffffffffffffff168173ffffffffffffffffffffffffffffffffffffffff1603610817576040517f08c379a000000000000000000000000000000000000000000000000000000000815260040161080e906110a6565b60405180910390fd5b8060025f6101000a81548173ffffffffffffffffffffffffffffffffffffffff021916908373ffffffffffffffffffffffffffffffffffffffff16021790555050565b5f80fd5b5f80fd5b5f819050919050565b61087481610862565b811461087e575f80fd5b50565b5f8135905061088f8161086b565b92915050565b5f602082840312156108aa576108a961085a565b5b5f6108b784828501610881565b91505092915050565b5f8115159050919050565b6108d4816108c0565b82525050565b5f6020820190506108ed5f8301846108cb565b92915050565b5f73ffffffffffffffffffffffffffffffffffffffff82169050919050565b5f61091c826108f3565b9050919050565b61092c81610912565b8114610936575f80fd5b50565b5f8135905061094781610923565b92915050565b5f602082840312156109625761096161085a565b5b5f61096f84828501610939565b91505092915050565b5f80fd5b5f80fd5b5f80fd5b5f8083601f84011261099957610998610978565b5b8235905067ffffffffffffffff8111156109b6576109b561097c565b5b6020830191508360018202830111156109d2576109d1610980565b5b9250929050565b5f819050919050565b6109eb816109d9565b81146109f5575f80fd5b50565b5f81359050610a06816109e2565b92915050565b5f805f8060608587031215610a2457610a2361085a565b5b5f610a3187828801610881565b945050602085013567ffffffffffffffff811115610a5257610a5161085e565b5b610a5e87828801610984565b93509350506040610a71878288016109f8565b91505092959194509250565b5f81519050919050565b5f82825260208201905092915050565b5f5b83811015610ab4578082015181840152602081019050610a99565b5f8484015250505050565b5f601f19601f8301169050919050565b5f610ad982610a7d565b610ae38185610a87565b9350610af3818560208601610a97565b610afc81610abf565b840191505092915050565b610b10816109d9565b82525050565b5f6060820190508181035f830152610b2e8186610acf565b9050610b3d6020830185610b07565b610b4a60408301846108cb565b949350505050565b7f4f6e6c7920617574686f72697a6564204341732063616e2063616c6c207468695f8201527f732066756e6374696f6e00000000000000000000000000000000000000000000602082015250565b5f610bac602a83610a87565b9150610bb782610b52565b604082019050919050565b5f6020820190508181035f830152610bd981610ba0565b9050919050565b7f436572746966696361746520616c7265616479207265766f6b656400000000005f82015250565b5f610c14601b83610a87565b9150610c1f82610be0565b602082019050919050565b5f6020820190508181035f830152610c4181610c08565b9050919050565b7f4e487b71000000000000000000000000000000000000000000000000000000005f52604160045260245ffd5b7f4e487b71000000000000000000000000000000000000000000000000000000005f52602260045260245ffd5b5f6002820490506001821680610cb957607f821691505b602082108103610ccc57610ccb610c75565b5b50919050565b5f819050815f5260205f209050919050565b5f6020601f8301049050919050565b5f82821b905092915050565b5f60088302610d2e7fffffffffffffffffffffffffffffffffffffffffffffffffffffffffffffffff82610cf3565b610d388683610cf3565b95508019841693508086168417925050509392505050565b5f819050919050565b5f610d73610d6e610d69846109d9565b610d50565b6109d9565b9050919050565b5f819050919050565b610d8c83610d59565b610da0610d9882610d7a565b848454610cff565b825550505050565b5f90565b610db4610da8565b610dbf818484610d83565b505050565b5b81811015610de257610dd75f82610dac565b600181019050610dc5565b5050565b601f821115610e2757610df881610cd2565b610e0184610ce4565b81016020851015610e10578190505b610e24610e1c85610ce4565b830182610dc4565b50505b505050565b5f82821c905092915050565b5f610e475f1984600802610e2c565b1980831691505092915050565b5f610e5f8383610e38565b9150826002028217905092915050565b610e7882610a7d565b67ffffffffffffffff811115610e9157610e90610c48565b5b610e9b8254610ca2565b610ea6828285610de6565b5f60209050601f831160018114610ed7575f8415610ec5578287015190505b610ecf8582610e54565b865550610f36565b601f198416610ee586610cd2565b5f5b82811015610f0c57848901518255600182019150602085019450602081019050610ee7565b86831015610f295784890151610f25601f891682610e38565b8355505b6001600288020188555050505b505050505050565b828183375f83830152505050565b5f610f578385610a87565b9350610f64838584610f3e565b610f6d83610abf565b840190509392505050565b5f6040820190508181035f830152610f91818587610f4c565b9050610fa06020830184610b07565b949350505050565b7f4f6e6c792074686520636f6e7472616374206f776e65722063616e2063616c6c5f8201527f20746869732066756e6374696f6e000000000000000000000000000000000000602082015250565b5f611002602e83610a87565b915061100d82610fa8565b604082019050919050565b5f6020820190508181035f83015261102f81610ff6565b9050919050565b7f4e6577206f776e65722063616e6e6f7420626520746865207a65726f206164645f8201527f7265737300000000000000000000000000000000000000000000000000000000602082015250565b5f611090602483610a87565b915061109b82611036565b604082019050919050565b5f6020820190508181035f8301526110bd81611084565b905091905056fea26469706673582212205577a154d3adf4e277a3e4312e73d812fcf59f74799a43453ac95ad60cdf8dac64736f6c63430008150033",
  "immutableReferences": {},
  "source": "// SPDX-License-Identifier: MIT\npragma solidity ^0.8.0;\n\n/**\n * @title RevocationRegistry\n * @dev Blockchain-based Certificate Revocation List (CRL) system\n * @notice This contract allows Certificate Authorities to revoke certificates\n * and enables clients to verify certificate status in near real-time\n */\ncontract RevocationRegistry {\n    struct RevocationInfo {\n        string issuerId;\n        uint256 timestamp;\n        bool revoked;\n    }\n\n    mapping(bytes32 => RevocationInfo) private revocations;\n    \n    mapping(address => bool) private authorizedCAs;\n    \n    address private owner;\n    \n    event RevocationEvent(bytes32 indexed serialNumber, string issuerId, uint256 timestamp);\n    event CAAuthorized(address indexed caAddress);\n    event CADeauthorized(address indexed caAddress);\n    \n    modifier onlyOwner() {\n        require(msg.sender == owner, \"Only the contract owner can call this function\");\n        _;\n    }\n    \n    modifier onlyAuthorizedCA() {\n        require(authorizedCAs[msg.sender], \"Only authorized CAs can call this function\");\n        _;\n    }\n    \n    constructor() {\n        owner = msg.sender;\n    }\n    \n    function authorizeCA(address caAddress) external onlyOwner {\n        authorizedCAs[caAddress] = true;\n        emit CAAuthorized(caAddress);\n    }\n    \n    function deauthorizeCA(address caAddress) external onlyOwner {\n        authorizedCAs[caAddress] = false;\n        emit CADeauthorized(caAddress);\n    }\n    \n    function isAuthorizedCA(address caAddress) external view returns (bool) {\n        return authorizedCAs[caAddress];\n    }\n    \n    function revokeCertificate(\n        bytes32 serialNumber,\n        string calldata issuerId,\n        uint256 timestamp\n    ) external onlyAuthorizedCA {\n        require(!revocations[serialNumber].revoked, \"Certificate already revoked\");\n        \n        revocations[serialNumber] = RevocationInfo({\n            issuerId: issuerId,\n            timestamp: timestamp,\n            revoked: true\n        });\n        \n        emit RevocationEvent(serialNumber, issuerId, timestamp);\n    }\n    \n    function isRevoked(bytes32 serialNumber) external view returns (bool) {\n        return revocations[serialNumber].revoked;\n    }\n    \n    function getRevocationDetails(bytes32 serialNumber) \n        external \n        view \n        returns (string memory issuerId, uint256 timestamp, bool revoked) \n    {\n        RevocationInfo memory info = revocations[serialNumber];\n        return (info.issuerId, info.timestamp, info.revoked);\n    }\n    \n    function transferOwnership(address newOwner) external onlyOwner {\n        require(newOwner != address(0), \"New owner cannot be the zero address\");\n        owner = newOwner;\n    }\n}",
  "sourcePath": "/Users/macbookpro/Projects/revocation-registry/contracts/RevocationRegistry.sol",
  "compiler": {
    "name": "solc",
    "version": "0.8.21+commit.d9974bed.Emscripten.clang"
  },
  "schemaVersion": "3.4.16",
  "updatedAt": "2025-05-07T01:55:42.410Z",
  "devdoc": {
    "details": "Blockchain-based Certificate Revocation List (CRL) system",
    "kind": "dev",
    "methods": {},
    "title": "RevocationRegistry",
    "version": 1
  },
  "userdoc": {
    "kind": "user",
    "methods": {},
    "notice": "This contract allows Certificate Authorities to revoke certificates and enables clients to verify certificate status in near real-time",
    "version": 1
  }
}